{"abi":[{"type":"function","name":"addPerson","inputs":[{"name":"_name","type":"string","internalType":"string"},{"name":"_favoriteNumber","type":"uint256","internalType":"uint256"}],"outputs":[],"stateMutability":"nonpayable"},{"type":"function","name":"favoriteNumber","inputs":[],"outputs":[{"name":"","type":"uint256","internalType":"uint256"}],"stateMutability":"view"},{"type":"function","name":"listOfPeople","inputs":[{"name":"","type":"uint256","internalType":"uint256"}],"outputs":[{"name":"favoriteNumber","type":"uint256","internalType":"uint256"},{"name":"name","type":"string","internalType":"string"}],"stateMutability":"view"},{"type":"function","name":"nameToFavoriteNumber","inputs":[{"name":"","type":"string","internalType":"string"}],"outputs":[{"name":"","type":"uint256","internalType":"uint256"}],"stateMutability":"view"},{"type":"function","name":"retrieve","inputs":[],"outputs":[{"name":"","type":"uint256","internalType":"uint256"}],"stateMutability":"view"},{"type":"function","name":"store","inputs":[{"name":"_favoriteNumber","type":"uint256","internalType":"uint256"}],"outputs":[],"stateMutability":"nonpayable"}],"bytecode":{"object":"0x6080604052348015600e575f5ffd5b5061059b8061001c5f395ff3fe608060405234801561000f575f5ffd5b506004361061006f575f3560e01c80636057361d1161004d5780636057361d146100b25780636f760f41146100c65780638bab8dd5146100d9575f5ffd5b80632e64cec1146100735780632ebce63114610089578063471f7cdf146100aa575b5f5ffd5b5f545b6040519081526020015b60405180910390f35b61009c610097366004610260565b610104565b604051610080929190610277565b6100765f5481565b6100c46100c0366004610260565b5f55565b005b6100c46100d436600461036c565b6101b8565b6100766100e73660046103ae565b805160208183018101805160028252928201919093012091525481565b60018181548110610113575f80fd5b5f9182526020909120600290910201805460018201805491935090610137906103e8565b80601f0160208091040260200160405190810160405280929190818152602001828054610163906103e8565b80156101ae5780601f10610185576101008083540402835291602001916101ae565b820191905f5260205f20905b81548152906001019060200180831161019157829003601f168201915b5050505050905082565b60408051808201909152818152602081018381526001805480820182555f91909152825160029091027fb10e2d527612073b26eecdfd717e6a320cf44b4afac2b0732d9fcbe2b7fa0cf68101918255915190917fb10e2d527612073b26eecdfd717e6a320cf44b4afac2b0732d9fcbe2b7fa0cf701906102389082610490565b5050508060028360405161024c919061054f565b908152604051908190036020019020555050565b5f60208284031215610270575f5ffd5b5035919050565b828152604060208201525f82518060408401528060208501606085015e5f606082850101526060601f19601f8301168401019150509392505050565b7f4e487b71000000000000000000000000000000000000000000000000000000005f52604160045260245ffd5b5f82601f8301126102ef575f5ffd5b813567ffffffffffffffff811115610309576103096102b3565b604051601f19603f601f19601f8501160116810181811067ffffffffffffffff82111715610339576103396102b3565b604052818152838201602001851015610350575f5ffd5b816020850160208301375f918101602001919091529392505050565b5f5f6040838503121561037d575f5ffd5b823567ffffffffffffffff811115610393575f5ffd5b61039f858286016102e0565b95602094909401359450505050565b5f602082840312156103be575f5ffd5b813567ffffffffffffffff8111156103d4575f5ffd5b6103e0848285016102e0565b949350505050565b600181811c908216806103fc57607f821691505b602082108103610433577f4e487b71000000000000000000000000000000000000000000000000000000005f52602260045260245ffd5b50919050565b601f82111561048b578282111561048b57805f5260205f20601f840160051c602085101561046457505f5b90810190601f840160051c035f5b81811015610487575f83820155600101610472565b5050505b505050565b815167ffffffffffffffff8111156104aa576104aa6102b3565b6104be816104b884546103e8565b84610439565b6020601f8211600181146104f0575f83156104d95750848201515b5f19600385901b1c1916600184901b178455610548565b5f84815260208120601f198516915b8281101561051f57878501518255602094850194600190920191016104ff565b508482101561053c57868401515f19600387901b60f8161c191681555b505060018360011b0184555b5050505050565b5f82518060208501845e5f92019182525091905056fea26469706673582212202e4045f8efc83ef5b1bab055dab63a32975000daae85ef53e312306d75c48f5664736f6c63430008230033","linkReferences":{}},"methodIdentifiers":{"addPerson(string,uint256)":"6f760f41","favoriteNumber()":"471f7cdf","listOfPeople(uint256)":"2ebce631","nameToFavoriteNumber(string)":"8bab8dd5","retrieve()":"2e64cec1","store(uint256)":"6057361d"},"id":0}